S014000046726565646F6D5F5368656C6C2E6865785F
S1130000003000201D3F0000B1080000B9080000C6
S1130010BD080000C1080000C5080000C9080000B0
S1130020CD080000D1080000D5080000E935000023
S1130030D9080000DD080000113600002521000069
S1130040E1080000E5080000E9080000ED080000F0
S1130050F1080000F5080000F9080000FD080000A0
S11300600109000005090000090900000D0900004C
S11300700D0800001109000015090000190900000D
S11300801D090000210900002509000029090000BC
S11300902D0900003109000035090000390900006C
S11300A03D0900004109000045090000490900001C
S11300B04D090000510900005509000059090000CC
S1130410002934D00123002210B488422CD30124B3
S11304202407A14204D2814202D209011B01F8E748
S1130430E400A14204D2814202D249005B00F8E701
S1130440884201D3401A1A434C08A04202D3001B2D
S11304505C0822438C08A04202D3001B9C08224360
S1130460CC08A04202D3001BDC082243002803D09E
S11304701B0901D00909E3E7101C10BC70470028D0
S113048001D00020C04307B4024802A140180290E2
S113049003BDC046D90000000029F0D003B5FFF722
S11304A0B9FF0EBC4243891A1847C046002941D0FF
S11304B010B4041C4C40A44601230022002900D59A
S11304C04942002800D5404288422CD30124240705
S11304D0A14204D2814202D209011B01F8E7E400DF
S11304E0A14204D2814202D249005B00F8E788426B
S11304F001D3401A1A434C08A04202D3001B5C08E3
S113050022438C08A04202D3001B9C082243CC083F
S1130510A04202D3001BDC082243002803D01B099D
S113052001D00909E3E7101C6446002C00D54042C1
S113053010BC7047002806D003DB0020C0434008ED
S113054001E08020000607B4024802A1401802908E
S113055003BDC046190000000029EBD003B5FFF726
S1130560A7FF0EBC4243891A1847C0467047C046CD
S113057008B5642003F04EFCFBE7C04600B585B027
S113058000F076F8962200230748084952000093A9
S113059001930293039303F0DDF8012800D0FEE7F2
S11305A003F0CCF905B000BD71050000E047000080
S11305B07047C04600B5402080F31188FEE7C0466E
S11305C008B501F051FF08BD7047C04600B5402092
S11305D080F31188FEE7C04608B500F04BFAFFF738
S11305E0CDFF03F0ABF9FEE700207047F8B5061C19
S11305F00D1C141C01F094FB1B27002816D1301C81
S1130600291C221C01F070FA00280FD1301C291C6F
S1130610221C01F04DF9002808D1301C291C221C91
S1130620FFF7E2FF431E984140420740381CF8BDE3
S113063010B588B06A460023137001F00BF900F07E
S1130640EFFF094C011C221C084800F0DFFF00F0FA
S1130650E7FF2021021C231C684600F0E5FF05206B
S113066003F0D8FBF3E7C046ED050000E8470000BF
S113067000B585B00123FA220093074800230749F7
S1130680520001930293039303F064F8012800D00D
S1130690FEE705B000BDC04631060000F04700008B
S11306A0F8B5071C182002F06BFE324900220860DE
S11306B0314B324942800281426042810282C260EF
S11306C04761CE588024E7003743CF502C4B2D4E42
S11306D05F6880243740A40027435F609F6800253B
S11306E03E4034439C60284BC324A4001E59FF277A
S11306F0BE43C0273E431E511E6880246701374312
S11307001F60224F0823FC7804269C43FC70FB786E
S11307108024B3431E4EFB700280BD70BD717D7199
S11307208D591C4BE2042B4013438B5139781F2203
S1130730914301252943392439707C70BB7A0326FF
S113074093431D1C3543BD72F97A02240C43FC7299
S1130750FA7808231343FB70FE7804253543FD70B3
S1130760F97820240C43FC70BA790B4BBA715860A9
S1130770F8BDC04610F0FF1F3410000000700440A4
S113078000900440FFF8FFFE00E100E000A00640F6
S113079004100000FFFFFFF320F0FF1FF8B5051C55
S11307A00F1C141C8420002A00D1F8BD2E890820B7
S11307B0002EFAD102F0E8FE6F602C816E8002F008
S11307C0EDFE0020F1E7C046F8B5051C0F1C141C13
S11307D08420002A00D1F8BD2E8A0820002EFAD1E8
S11307E002F0D2FE6E812E882C820124064B344303
S11307F0EF602C80D97880200843D8709A799A7158
S113080002F0CCFE0020E6E700A0064038B5264BF7
S11308100F221C68254B1D792A4203D01A7120200F
S1130820DB798543AB0604D5204A2189D279002996
S113083018D1218801230B4213D08020284210D0E4
S11308406589228A95421ED2E568184A29780135BD
S1130850D1716089218A013083B2E5606381994254
S11308601CD038BD6068027061880130606001315D
S113087020898BB263809842DBD100222281606997
S113088001F000F8D5E7094A7F20D5780540D570F6
S11308909179917125889D432580E2E70023238285
S11308A0606900F0FFFFDCE710F0FF1F00A00640C6
S11308B008B5FFF77DFE08BDFFBE7047FFBE704759
S11308C0FFBE7047FFBE7047FFBE7047FFBE704754
S11308D0FFBE7047FFBE7047FFBE7047FFBE704744
S11308E0FFBE7047FFBE7047FFBE7047FFBE704734
S11308F0FFBE7047FFBE7047FFBE7047FFBE704724
S1130900FFBE7047FFBE7047FFBE7047FFBE704713
S1130910FFBE7047FFBE7047FFBE7047FFBE704703
S1130920FFBE7047FFBE7047FFBE7047FFBE7047F3
S1130930FFBE7047FFBE7047FFBE7047FFBE7047E3
S1130940FFBE7047FFBE7047FFBE7047FFBE7047D3
S1130950FFBE7047FFBE7047FFBE704710B5374BF0
S1130960374938488824C850374B620100209850D2
S1130970364AF0219C58490121439950344C354A58
S113098080219C50344A49029C58214399501C6848
S11309903249214080242403214319609C58304962
S11309A0214080246404214399502E4A2E4C936C98
S11309B023409364D16C24230C402C49D4642C4AE6
S11309C04B7080249A2314700B70CC781F2214402F
S11309D00123CC7010220B7148718C792242FCD116
S11309E022480C218379214A0B40082BFAD1204953
S11309F0802008709A23012124244020137054700D
S1130A00117150710C2194790C40082CFBD11748BA
S1130A1040218379154A1942FBD01549802008707A
S1130A201A23012124244020137054701171507131
S1130A300C2194790C400C2CFBD110BD080D000046
S1130A4000E000E0000000000070044038100000E6
S1130A50000001104410000004100000FFFFF3FF29
S1130A60FFFFFFFC00900440FFF8FFFE004006403B
S1130A700050064038B52C4A2C4CE0231159C025AF
S1130A809943294311512A4A2A491369E0200B400A
S1130A90C00003431361284B1F255C79AC435C7190
S1130AA01C790725AC431C71244B73251C78AC437B
S1130AB050252C431C705C786325AC4340252C43A3
S1130AC05C709C781925AC439C701D4B00241C70F1
S1130AD01C4BA025DC68ED000C402C43DC60156D3C
S1130AE0C124294008431065174AA300D058174968
S1130AF00140D15001F0AEFD01F09EFB002001F059
S1130B002BFA002001F01AFA002001F061FA00200B
S1130B1001F0F8F8002001F097FA002000F0D6FF69
S1130B2001F098FB38BDC04600700440041000007A
S1130B3000900440FFF8FFFE00F0074000D007409B
S1130B4000E0074000B0044000E100E0FFFF00FFC8
S1130B5002F03AFD08B501F069FB431E984108BD57
S1130B6070B582B06D46094C07350023084E2870D5
S1130B7023703068291C0122FFF726FE0028F8D1D3
S1130B8020780028FCD002B070BDC04615F0FF1FCD
S1130B9018F0FF1F10B5041C01F00EFB002801D053
S1130BA00023237010BDC04670B584B0051C03A893
S1130BB00C1C01F093FC1B23002802D0181C04B069
S1130BC070BD6A460226127B3023281C211C009625
S1130BD001F0DAFF281C211C3A2201F0E5FD6946E8
S1130BE04A7B3023281C211C009601F0CDFF281CD1
S1130BF0211C3A2201F0D8FD6846827B3023281C50
S1130C00211C009601F0C0FF281C211C2C2201F09D
S1130C10CBFD6B46DA7B281C3023211C009601F0A7
S1130C20B3FF0023CAE7C04638B5041C00780D1C86
S1130C30002804D00134A84720780028FAD138BD10
S1130C40F0B5041C23798DB004300E1C0990202BC0
S1130C5014D003A81721404A01F048FD0AA801F066
S1130C60CBFC00282ED0B5683C4C2A200134A84780
S1130C7020780028FAD11B200DB0F0BD69466A46E1
S1130C8009A82E312F320BAB02F074F900284DD095
S1130C90B768334D2A200135B84728780028FAD19F
S1130CA02078B568002805D00134A84720780028AA
S1130CB0FAD1B5682B4C0D200134A84720780028C0
S1130CC0FAD1D8E72B20684402783023022703A8FE
S1130CD01721009701F094FE03A817212E2201F09A
S1130CE063FD2A236B441A7803A8302317216D4629
S1130CF0009701F085FE03A817212E2201F054FD70
S1130D002A8D03A8172101F033FE03A81721154AE1
S1130D1001F00EFD75686E46307B03AC0028ABD045
S1130D200134A84720780028FAD1A5E72F212E22E4
S1130D306C4669446A44A08D0978127801F00EFC6F
S1130D40002800D185E7B568074C2A200134A8475C
S1130D5020780028FAD18EE7384800004448000083
S1130D601048000084490000F8470000F0B5041C56
S1130D7023798BB004300E1C0890202B16D002A8C7
S1130D801821334A01F0B2FC02A81821FFF70CFF26
S1130D90002832D0B5682F4C2A200134A847207887
S1130DA00028FAD11B23181C0BB0F0BD272169447D
S1130DB06A466B46009108A809A92532263302F039
S1130DC099F900282CD0B768234D2A200135B8475B
S1130DD028780028FAD12078B568002805D0013495
S1130DE0A84720780028FAD1B5681C4C0D2001349E
S1130DF0A84720780028FAD1D4E702A81821174A76
S1130E0001F096FC75686E46307A00230028CAD03B
S1130E1002AC0134A84720780028FAD10023C2E7A5
S1130E2025252622272409AF6D446A446C4438786A
S1130E3029781278237801F0DBFA00289FD0B5686E
S1130E40074C2A200134A84720780028FAD1A9E7C2
S1130E50A8480000B4480000844800008449000009
S1130E6064480000F0B54F464646C0B4994C071C90
S1130E70466889B0251C2D200135B0472878002804
S1130E80FAD17E68944D0D200135B04728780028AA
S1130E90FAD17E68251C2D200135B047287800281A
S1130EA0FAD18E4A7E689046151C0D200135B04754
S1130EB028780028FAD17E68894D54200135B0473E
S1130EC028780028FAD17D682D200134A84720789D
S1130ED00028FAD102F00AFE81000C18E400201C5C
S1130EE002F04EFA061E00D171E1301C211C02F002
S1130EF013FF30787D68002805D0341C0134A847DE
S1130F0020780028FAD1301C02F09CFA7E68754DD6
S1130F1052200D2401E0002C06D0B0476878013C33
S1130F20E4B201350028F6D1002C13D0013C012590
S1130F3025402020E4B2B047002C0BD0002D03D173
S1130F402020B047013CE4B2013C2020E4B2B04789
S1130F50002CF5D13A20B0472020B04703AB994686
S1130F60181C1021642201F091FC484600787D6829
S1130F70002806D04C460134A84720780028FAD12E
S1130F807D68594C20200134A84720780028FAD1E4
S1130F90484610210A224E4601F078FC30787D68DC
S1130FA0002806D04C460134A84720780028FAD1FE
S1130FB07D684E4C20200134A84720780028FAD1BF
S1130FC07E684B4D46200D2401E0002C06D0B0472E
S1130FD06878013CE4B201350028F6D1002C13D026
S1130FE0013C012525402020E4B2B047002C0BD061
S1130FF0002D03D12020B047013CE4B2013C202065
S1131000E4B2B047002CF5D13A20B0472020B047D5
S113101002F034FA1021021C484601F0E3FE4A466D
S113102010787D68002806D04C460134A847207803
S11310300028FAD17D682F4C20200134A84720785D
S11310400028FAD17C682C4E46200D2501E0002DA5
S113105006D0A0477078013DEDB201360028F6D1E4
S1131060002D13D0013D01262E402020EDB2A047D3
S1131070002D0BD0002E03D12020A047013DEDB25E
S1131080013D2020EDB2A047002DF5D13A20A04724
S11310902020A047194D44200135A0472878002876
S11310A0FAD17D682020A8477D68154C3120013491
S11310B0A84720780028FAD17D6844460D200134E1
S11310C0A84720780028FAD17E680E4D53200D24BD
S11310D01CE0C0460849000048490000844900005B
S11310E05C490000FC480000A4490000AC49000031
S11310F0F0480000B4490000E4480000C049000082
S1131100CC490000DC480000002C06D0B0476878C9
S1131110013CE4B201350028F6D1002C13D0013C87
S1131120012525402020E4B2B047002C0BD0002D2F
S113113003D12020B047013CE4B2013C2020E4B2BA
S1131140B047002CF5D13A20B0472020B0474C4698
S11311500021217007A801F04FFA002840D0BD6893
S1131160354C2A200134A84720780028FAD11B26C0
S113117048461021314A01F0B9FA48461021FFF7D8
S113118013FD002816D0BD682D4C2A200134A84731
S113119020780028FAD17C680D20A04701208044E3
S11311A0474638780028F8D1301C09B00CBC90466A
S11311B09946F0BD494608787C680028ECD04D4635
S11311C00135A04728780028FAD17C68E4E7BD6897
S11311D01C4C0D200134A84720780028FAD195E64C
S11311E06D46EA7F3023022648461021009601F01E
S11311F007FC484610212E2201F0D6FAAA7F30239C
S113120048461021009601F0FBFB484610212E228F
S113121001F0CAFAAA8B4846102101F0A9FB2078F4
S11312207D684C46002804D00134A8472078002863
S1131230FAD100269CE7C046D8490000A84900001E
S1131240F849000088490000F8B54F464646C0B446
S113125089469F49041C904602F0AFFE002806D040
S1131260201C9C4902F0A9FE002800D0FCE0424664
S1131270994D56682C1C2D200134B0472078002845
S1131280FAD14346954C5F68261C0D200136B847B9
S113129030780028FAD14046914E476846200136FE
S11312A0B84730780028FAD141464F68261C0D20F3
S11312B00136B84730780028FAD1464676682D20A2
S11312C00135B04728780028FAD145466D680D20CD
S11312D00134A84720780028FAD144466468814E36
S11312E046201A2501E0002D06D0A0477078013D64
S11312F0EDB201360028F6D1002D13D0013D0126B0
S11313002E402020EDB2A047002D0BD0002E03D19B
S11313102020A047013DEDB2013D2020EDB2A047C1
S1131320002DF5D13B20A0472020A0476E4D47203B
S11313300135A04728780028FAD147467C686B4ECF
S113134020201A2501E0002D06D0A0477078013D29
S1131350EDB201360028F6D1002D13D0013D01264F
S11313602E402020EDB2A047002D0BD0002E03D13B
S11313702020A047013DEDB2013D2020EDB2A04761
S1131380002DF5D13B20A0472020A047584D5020E8
S11313900135A04728780028FAD142465468554EB2
S11313A020201A2501E0002D06D0A0477078013DC9
S11313B0EDB201360028F6D1002D13D0013D0126EF
S11313C02E402020EDB2A047002D0BD0002E03D1DB
S11313D02020A047013DEDB2013D2020EDB2A04701
S11313E0002DF5D13B20A0472020A047424D53209B
S11313F00135A04728780028FAD143465C683F4E5F
S113140020201A2501E0002D06D0A0477078013D68
S1131410EDB201360028F6D1002D13D0013D01268E
S11314202E402020EDB2A047002D0BD0002E03D17A
S11314302020A047013DEDB2013D2020EDB2A047A0
S1131440002DF5D13B20A0472020A0472C4D532050
S11314500135A04728780028FAD1012649460E70A4
S11314600CBC90469946F8BD201C264902F0A5FD07
S113147000281DD0201C244902F09FFD002817D00D
S1131480201C2249042202F0B0FD002817D0201CA1
S11314901F49042202F0A9FD031C0020002BDFD108
S11314A0494601260E70201C4146FFF75FFCD7E732
S11314B04846012505704046FFF7D4FCD0E70122D9
S11314C04F463A70201C4146FFF7BAFBC8E7C046B6
S11314D0E84700005C4A0000084900008449000015
S11314E0684A0000544A00007C4A0000444A000054
S11314F0984A00002C4A0000BC4A0000184A000028
S1131500FC4A00003C4B0000444B0000544B0000DC
S11315105C4B0000F8B58D68194C071C0E1C2A2082
S11315200134A84720780028FAD13878B468002814
S113153005D00137A04738780028FAD1B468114D96
S11315400D200135A04728780028FAD1B5680E4C43
S11315502A200134A84720780028FAD1B5680B4C1A
S113156068200134A84720780028FAD1B568084CCF
S113157020200134A84720780028FAD1F8BDC046BD
S1131580644B000084490000844B0000E8470000DD
S1131590904B0000F0B5474680B4077882B0002332
S11315A09046233F6A4613717B425F410C1CC51968
S11315B0281C01A9221CFFF747FE1B26002804D083
S11315C0301C02B004BC9046F0BD4046002815D043
S11315D0281C01A9221CC04700280FD0281C211C4C
S11315E0FFF798FF1B26002FEAD16568064C4320BD
S11315F00134A84720780028FAD1E1E76E46317912
S113160000260029EFD1E9E7D448000010B504789A
S1131610031C0020002C02D0181CFFF7BBFF10BDD8
S113162000487047B84B0000F0B55F4656464D463B
S11316304446F0B485B0161C8B460193814602F0F3
S1131640CAFCF368051C98470023002856D0594665
S11316504C464A1B641901276D460F3592463A40A1
S11316602B7000923168281C984688472B78237089
S1131670002B3BD001340A2B38D00D2B36D05746E3
S1131680013F012F32D90099002910D0404628701B
S11316903368281C98472B782370002B26D00134FC
S11316A00A2B23D00D2B21D0013F012F1ED94046F8
S11316B028703368281C98472B782370002B15D08A
S11316C001340A2B12D00D2B10D0414629703268F8
S11316D0281C90472B782370002B07D001340A2B49
S11316E004D00D2B02D0023F012FE0D80025257035
S11316F0484602F070FC1B23002807D1181C05B0D3
S11317003CBC90469946A246AB46F0BD01282AD07F
S11317105A46013A904218D20138484402780D2AB8
S113172002D000230A2AE9D1002303704C4627780B
S11317300023002F05D04846311C019AFFF72AFFE9
S1131740031C002248460270D8E74946087800285E
S113175004D04846311C019AFFF71CFF00254E4671
S113176035700423CAE74F463B780D2B01D00A2B72
S1131770CED100234C462370CAE7C046F8B5061CF8
S113178000780F1C141C1A25002802D10AE0002D31
S113179006D0A0477078013DEDB201360028F6D19D
S11317A0002D13D0013D01262E402020EDB2A0478C
S11317B0002D0BD0002E03D12020A047013DEDB217
S11317C0013D2020EDB2A047002DF5D13B20A047DC
S11317D02020A0473878002804D00137A047387863
S11317E00028FAD1F8BDC046F8B5061C00780F1CD5
S11317F0141C0D25002802D10AE0002D06D0A047B4
S11318007078013DEDB201360028F6D1002D13D0D9
S1131810013D01262E402020EDB2A047002D0BD023
S1131820002E03D12020A047013DEDB2013D202030
S1131830EDB2A047002DF5D13A20A0472020A047C3
S11318403878002804D00137A04738780028FAD126
S1131850F8BDC04638B50020FEF722FF074D2860CA
S113186000F0EAFC064C002323702868211C0122A6
S1131870FEF794FF0028F8D138BDC04618F0FF1FCA
S11318801CF0FF1F10B5054C207800F05DFC044BE4
S1131890211C18680122FEF781FF10BD1CF0FF1FF8
S11318A018F0FF1F014B01221A70704715F0FF1F3B
S11318B0F0B50D1C85B06B49061C141C02F07DFBB1
S11318C0002848D0301C684902F077FB002842D039
S11318D0301C664902F071FB002855D0301C644965
S11318E002F06BFB00284FD0301C624902F065FB0C
S11318F0002800D175E0301C5F4902F05EFB00282F
S113190000D191E0301C5D4902F057FB002800D162
S113191095E0301C5A490A2202F067FB031C0020A0
S1131920002B2FD1301CB17A0A300290302965D0B7
S113193003AE02A8311C01F0EFFA071C02990B78E0
S1131940252B00D182E0002F63D04E48A168FFF719
S11319506BF91B2016E001232B7062684A484B493F
S1131960FFF70CFF62684A484A49FFF707FF6268BD
S113197049484A49FFF702FF494862684949FFF765
S1131980FDFE002005B0F0BD01202870464D6268C0
S11319903D48291CFFF728FF444E626831884448BB
S11319A000291AD14349FFF71FFF6268424843499F
S11319B0FFF71AFF00276A46177068463288062127
S11319C001F0A6F9684606212A1C00F0B1FE68461B
S11319D06168FFF729F90020D4E73949FFF704FFCC
S11319E0E3E701210123314E364C29705D423580F5
S11319F0A069354900F046FB0020C3E7F27A782A53
S1131A0000D095E703AE02A8311C01F027FC071CA7
S1131A1094E701273188254B2F702A4C1980A0693F
S1131A2000F030FB0020ADE7204A01272F70108022
S1131A3024480021806900F025FB0020A2E701264C
S1131A401A4B2E701D88EC43A1B2E6E73388642B51
S1131A5000D978E71804C01A6421FEF7D9FC308055
S1131A6071E7C046E8470000C84B00003C4B00004B
S1131A70644C0000944C00009C4C0000A84C0000F6
S1131A80B44C0000C04C0000D44B0000DC4B000000
S1131A90444A0000984A0000F84B0000084C00003B
S1131AA0284C0000384C000084490000A611002096
S1131AB0704C0000804C0000884C0000904C0000EA
S1131AC0784C000020F0FF1FFFFF000008B5011C48
S1131AD0034B04480180986900F0D4FA08BDC0465D
S1131AE020F0FF1FA6110020F0B50D1C85B06B4936
S1131AF0061C141C02F061FA002848D0301C684906
S1131B0002F05BFA002842D0301C664902F055FA14
S1131B10002855D0301C644902F04FFA00284FD0F9
S1131B20301C624902F049FA002800D175E0301CEB
S1131B305F4902F042FA002800D191E0301C5D496F
S1131B4002F03BFA002800D195E0301C5A490A22E1
S1131B5002F04BFA031C0020002B2FD1301CB17A69
S1131B600A300290302965D003AE02A8311C01F07E
S1131B70D3F9071C02990B78252B00D182E0002FA2
S1131B8063D04E48A168FFF74FF81B2016E00123ED
S1131B902B7062684A484B49FFF7F0FD62684A4877
S1131BA04A49FFF7EBFD626849484A49FFF7E6FDF9
S1131BB0494862684949FFF7E1FD002005B0F0BDDE
S1131BC001202870464D62683D48291CFFF70CFE31
S1131BD0444E62683188444800291AD14349FFF7CA
S1131BE003FE626842484349FFF7FEFD00276A4648
S1131BF0177068463288062101F08AF86846062183
S1131C002A1C00F095FD68466168FFF70DF8002076
S1131C10D4E73949FFF7E8FDE3E701210123314E19
S1131C20364C29705D4235802069354900F0EEF963
S1131C300020C3E7F27A782A00D095E703AE02A821
S1131C40311C01F00BFB071C94E701273188254B5D
S1131C502F702A4C1980206900F0D8F90020ADE7D4
S1131C60204A01272F70108024480021006900F0C9
S1131C70CDF90020A2E701261A4B2E701D88EC43F3
S1131C80A1B2E6E73388642B00D978E71804C01AB8
S1131C906421FEF7BDFB308071E7C046E8470000D1
S1131CA0F84C00003C4B0000284D0000344D00006F
S1131CB03C4D0000484D0000544D0000C04C000055
S1131CC0044D00000C4D0000444A0000984A0000F6
S1131CD0F84B0000084C0000284C0000384C000071
S1131CE084490000A8110020704C0000804C0000C2
S1131CF0884C0000904C0000784C000020F0FF1F3E
S1131D00FFFF000008B5011C034B0448018018695B
S1131D1000F07CF908BDC04620F0FF1FA811002088
S1131D20F0B50D1C85B06B49061C141C02F045F976
S1131D30002848D0301C684902F03FF9002842D0FE
S1131D40301C664902F039F9002855D0301C64492A
S1131D5002F033F900284FD0301C624902F02DF90B
S1131D60002800D175E0301C5F4902F026F90028F4
S1131D7000D191E0301C5D4902F01FF9002800D128
S1131D8095E0301C5A490A2202F02FF9031C002066
S1131D90002B2FD1301CB17A0A300290302965D043
S1131DA003AE02A8311C01F0B7F8071C02990B78A6
S1131DB0252B00D182E0002F63D04E48A168FEF7A6
S1131DC033FF1B2016E001232B7062684A484B49FD
S1131DD0FFF7D4FC62684A484A49FFF7CFFC6268BF
S1131DE049484A49FFF7CAFC494862684949FFF72C
S1131DF0C5FC002005B0F0BD01202870464D626886
S1131E003D48291CFFF7F0FC444E62683188444881
S1131E1000291AD14349FFF7E7FC62684248434965
S1131E20FFF7E2FC00276A461770684632880621ED
S1131E3000F06EFF684606212A1C00F079FC684613
S1131E406168FEF7F1FE0020D4E73949FFF7CCFCC6
S1131E50E3E701210123314E364C29705D42358080
S1131E60E068354900F096F80020C3E7F27A782A52
S1131E7000D095E703AE02A8311C01F0EFF9071C6E
S1131E8094E701273188254B2F702A4C1980E0688C
S1131E9000F080F80020ADE7204A01272F70108061
S1131EA024480021C06800F075F80020A2E701264C
S1131EB01A4B2E701D88EC43A1B2E6E73388642BDD
S1131EC000D978E71804C01A6421FEF7A1FA30801B
S1131ED071E7C046E8470000604D00003C4B00003D
S1131EE0904D00009C4D0000A44D0000B04D00003A
S1131EF0BC4D0000C04C00006C4D0000744D00004F
S1131F00444A0000984A0000F84B0000084C0000C6
S1131F10284C0000384C000084490000AA1100201D
S1131F20704C0000804C0000884C0000904C000075
S1131F30784C000020F0FF1FFFFF000008B5011CD3
S1131F40034B04480180D86800F024F808BDC0465B
S1131F5020F0FF1FAA11002038B5051C0C2001F049
S1131F600FFA0A4B041C856001202071E3800020D5
S1131F7000F07CF92060002803D00549CC60201CC7
S1131F8038BD201C01F05EFA0024F8E7FF7F000052
S1131F9020F0FF1F30B583B06D460635C180041CA8
S1131FA0291C006800F0AAF92B88002B0ED0E188C8
S1131FB05D1E4B43802210022840C218120C206878
S1131FC0012100F0A3F9002003B030BDE288F6E758
S1131FD038B5051C0C2001F0D3F90A4B041C8560AC
S1131FE001202071E380002000F040F920600028E7
S1131FF003D005490C61201C38BD201C01F022FAD5
S11320000024F8E7FF7F000020F0FF1F30B583B005
S11320106D460635C180041C291C006800F06EF969
S11320202B88002B0ED0E1885D1E4B4380221002CA
S11320302840C218120C2068002100F067F9002023
S113204003B030BDE288F6E738B5051C0C2001F07A
S113205097F90A4B041C856001202071E38000205D
S113206000F06CF92060002803D005498C61201C25
S113207038BD201C01F0E6F90024F8E7FF7F0000DA
S113208020F0FF1F30B583B06D460635C180041CB7
S1132090291C006800F098F92B88002B0ED0E188E9
S11320A05D1E4B43802210022840C218120C206887
S11320B0002100F091F9002003B030BDE288F6E77A
S11320C038B5041C042001F05BF90C4B0C49186072
S11320D00C4B00250460D2221D6059600A499D60A2
S11320E012018C582502C0242D0AA4052C438C50BF
S11320F007221A60054B186038BDC0463CF0FF1F2C
S1132100FF52070010E000E000E000E020F0FF1FB5
S1132110034B0122196800200A431A607047C04625
S113212010E000E008B5054B054A18680549126837
S1132130014019601068FEF70BFD08BD10E000E0D7
S11321403CF0FF1FFFFFFEFF70B5164B011C187813
S11321500130C2B21A70012A1CD013480B22047831
S1132160202C0BD0114D124E2A780134B154561C38
S1132170F1B2047029700022202911D01878013896
S1132180C5B21D70002D03D10A4B187880F3108856
S1132190101C70BD074CEFF3108072B62070DCE7A2
S11321A02A70EBE714F0FF1F60F0FF1F62F0FF1FBF
S11321B040F0FF1FA411002070B5174B011C1878C4
S11321C00130C2B21A70012A1FD014480A220478BE
S11321D0002C0BD118780138C5B21D70002D03D125
S11321E00F4B187880F31088101C70BD0D4D0E4EE7
S11321F02A78013CB65C04700E70561CF1B229704A
S113220000222029E6D12A70E4E7054CEFF3108080
S113221072B62070D9E7C04614F0FF1F60F0FF1FAC
S1132220A411002061F0FF1F40F0FF1F014B18783C
S11322307047C04660F0FF1F03490448044A002366
S11322400B7003701370704762F0FF1F61F0FF1F83
S113225060F0FF1F034B0449012200201A7008603C
S11322605A70704764F0FF1F68F0FF1F70B51B4C75
S1132270051CA068002804D0047985600134047129
S113228070BD0C2001F07CF80126154A154B06712F
S11322908560D5588021CE042E43D650124B134A64
S11322A0134E00212C2519605960D96059619E6034
S11322B05D619A61DD601A610E4A0F4DD66CC021D2
S11322C02E4089000E43D664966C354029439164B0
S11322D00821092201601A60A060D1E720F0FF1FE5
S11322E0007004403C10000000A00340C05D0000EA
S11322F07FBB000000A00440FFF8FFFE0248836893
S1132300002001330B80704700A0034000B58220F9
S1132310012900D900BD0648435C0920002BF9D1EE
S1132320044B0548595CCB0019188A600020F1E77A
S1132330CC4D0000C84D000008A0034038B51A4C2D
S1132340051C6069002804D0047985600134047197
S113235038BD0C2001F014F801220271134B144A09
S11323608560D558802149042943D150114B00215F
S1132370114D19602C225960D9605961D961596293
S1132380D96259630D499D605A610D4A9961556836
S11323900C4929408025ED00294351600821092278
S11323A001601A606061D3E720F0FF1F3C10000059
S11323B000700440008003407FBB0000C05D00004B
S11323C000C00440FFF8FFFE024883680020013388
S11323D00B8070470080034000B58220002900D0A4
S11323E000BD024B00209A61FAE7C046008003401A
S11323F070B5041C632B02D90223181C70BD3B204A
S11324009042F9D38842F7D3172CF5D8114D2E7882
S11324100136F0B22870012816D00F4E0F487143D0
S113242044430E1964214A432978B0180C4C0139ED
S1132430C318CAB223602A700023002ADDD1094DD3
S1132440287880F31088D8E7064EEFF3108072B630
S11324503070E2E714F0FF1F70170000407E0500A3
S113246070F0FF1FA411002070B5144B14481968B4
S11324704A1C1A6082421DD9124D4C191C60124B21
S1132480124C197825880131CAB21A70A90712D1E1
S11324900F4E104908783618013E3678964209D214
S11324A0012201301A70C3B20B700C2B02D9013512
S11324B00A70258070BD084EEBE7C04670F0FF1F20
S11324C0FFD58300012A7CFF6DF0FF1F6EF0FF1F14
S11324D0D04D00006CF0FF1FDC4D000038B51C4BE4
S11324E0041C18780130C2B21A70012A2AD0187854
S11324F0184D0138C2B22D681A70002A03D1164B48
S1132500187880F31088281C6421FDF7C5FF281C67
S1132510E1706421FDF77CFF3C21051CFDF7BCFF45
S1132520281CA1703C21FDF773FF85B2281C3C21B7
S1132530FDF7B2FF281C61703C21FDF769FF207094
S1132540002038BD0449EFF3108072B60870CEE75E
S113255014F0FF1F70F0FF1FA411002030B5031CFE
S11325600C2902D90224201C30BD1B4D4419A0B2F1
S11325706528F7D802241F2AF5D80029F3D0002AA9
S1132580F1D098071FD015484418013C2078022444
S11325909042E8D3124C20780130C5B22570012D49
S11325A013D01048104D017021782A700F4A013958
S11325B01380CBB223700024002BD4D10C4B187899
S11325C080F31088CFE70B48DEE7094DEFF3108066
S11325D072B62870E5E7C04632F8FFFFDC4D000014
S11325E014F0FF1F6CF0FF1F6DF0FF1F6EF0FF1F54
S11325F0A4110020D04D000000B5114B021C187826
S11326000130C1B21970012914D00E4801880E4856
S1132610118001780D48917001781878D1700138D3
S1132620C2B21A70002A03D1094B187880F31088BB
S1132630002000BD0649EFF3108072B60870E4E78D
S113264014F0FF1F6EF0FF1F6CF0FF1F6DF0FF1FF3
S1132650A411002000B51D4B18780130C2B21A70C5
S1132660012A26D018781A4A1A4901381160C2B2D0
S11326701A70002A03D11849087880F310881A7850
S11326800132D0B21870012819D014491620144A06
S11326900870072111701A7812481349013A018011
S11326A0D0B21870002803D10B4B187880F310882F
S11326B000BD0949EFF3108072B60870D2E70649ED
S11326C0EFF3108072B60870DFE7C04614F0FF1F06
S11326D070F0FF1FAC196200A41100206DF0FF1F01
S11326E06CF0FF1F6EF0FF1FDC07000030B50129FE
S11326F00CD01478002C09D002390023CD0712D550
S113270004700123D45C0130002C0CD1002303702D
S113271030BD0133D45C002CF8D004700133D45C98
S11327200130002CF2D0047001308B42F1D1EDE77E
S113273030B54B1E002B26D00478002C06D0CC07D5
S11327402CD5013005788B1E002D27D11178002956
S113275019D05C1EE50712D50170013211780130E1
S1132760231C00290BD10EE0511C5278002A0AD0F8
S113277002704A1C49780130023B002903D00170E1
S11327800130012BF0D10023037030BD0178002902
S1132790DCD001300478013B002CD7D0013B013060
S11327A0002BF3D1EFE7C04610B54B1E002B0BD026
S11327B00478002C06D0CC0711D5013004788B1E88
S11327C0002C0CD1027001300023037010BD01787D
S11327D00029F7D001300178023B0029F2D0013002
S11327E0012BF4D1F0E7C046F8B54E1E331C141C7F
S11327F05A1E9341051C002B01D0002C42D0002707
S1132800002C3CD0002B02D139E0002C0FD0201C2E
S11328100A21FDF741FE3031E955201C0A21FDF75C
S1132820F7FD0137013EFFB284B2002EEDD17808E6
S113283025D0791E69180A782E78431E01242A703F
S11328401C400E7001224B1E012818D9002C07D001
S11328506A781E786E701A7002228B1E90420ED90E
S1132860A95C1C78AC541970591E0E780132AC5C0A
S1132870AE540132D6B20C70023BB042F0D8002004
S1132880E855F8BD302303700127F8E7F0B5474653
S113289080B4D30F061C141C98464F1E002B01D085
S11328A0544224B23B1C5A1E9341002C01D1002BEC
S11328B04DD1002C59DD002B57D0002501E0002C10
S11328C012DD201C0A21FDF747FE30317155201C12
S11328D00A21FDF7EBFD013F3B1C01355A1E9341D4
S11328E0EDB204B2002BEAD12F1C002B02D04146DA
S11328F0002934D1680825D0013D7519431E0121F2
S11329002C7819403378012234702B706B1E012807
S113291018D9002907D07278197871701A700222B8
S1132920AB1E90420ED9B15C1C78B4541970591E78
S11329300D780132B45CB5540132D5B20C70023B4F
S1132940A842F0D80020F05504BC9046F0BD7B1E90
S113295030205F1EBB41307001270125C5E70135DA
S11329602D22EDB2F2552F1CC4E700270025BCE749
S113297030B583B00D1C041C06216846FFF734FFF4
S11329806B1E002B2AD02278002A06D0E80731D506
S113299001342278AB1E002A2CD16A461178002912
S11329A01CD000ADEB180132D80713D4217069464E
S11329B0013109786A460134023200290AD10DE056
S11329C0511C1278002A09D022704A1C097801345B
S11329D0002903D0217001349A42F1D100232370DD
S11329E003B030BD20780028D7D001342078013BD3
S11329F00028D2D0013B0134002BF3D1EEE7C046CE
S1132A00F0B55F4656464D464446F0B485B08B4615
S1132A100EA90F78041C594602A81D1CFFF7E4FEFA
S1132A206846037A0022002B06D002AB01331E78DD
S1132A300132D2B2002EF9D1FFB251B278B2B94606
S1132A40814259D0884257DD02AB5F180197019B40
S1132A5001261F781640BC46019F6346B2467E1A83
S1132A603354561E3B1CF7B2013BBC4636061FD4FA
S1132A705646002E0ED01F7801265B1A1F5473424F
S1132A809846E0444746019BFEB24746023BB446A3
S1132A903F060DD41F785E1A37545F1E3E787F1AA6
S1132AA03E546746023FFEB2023BB4463E06F1D5B1
S1132AB056B2F343D91748460A400138821AD1B2B4
S1132AC04BB2002B18DB072602AA6E44D2189B19BE
S1132AD0591A881A0127531E874315708B420BD04D
S1132AE0002F03D01D70931E8B4205D01D705F1EF6
S1132AF0023B3D708B42F9D15B46013B002B2DD04C
S1132B002578002D08D05946CA0738D501342578D0
S1132B105B46023B002D32D16E46317A00291DD02E
S1132B2002AAD3186A460932D80713D46F46093764
S1132B30217039786A4601340A3200290AD10DE03D
S1132B40511C1278002A09D022704A1C09780134D9
S1132B50002903D0217001349A42F1D1002323705B
S1132B6005B03CBC90469946A246AB46F0BD2078E1
S1132B700028D1D001342178013B0029CCD0013B7D
S1132B800134002BF3D1E9E7F0B55F4656464D46D4
S1132B904446F0B485B08B460EA90F78041C594600
S1132BA002A81D1CFFF772FE6846037A0022002B60
S1132BB006D002AB01331E780132D2B2002EF9D115
S1132BC0FFB251B278B2B946814259D0884257DD3A
S1132BD002AB5F180197019B01261F781640BC4683
S1132BE0019F6346B2467E1A3354561E3B1CF7B20D
S1132BF0013BBC4636061FD45646002E0ED01F7825
S1132C0001265B1A1F5473429846E0444746019BD1
S1132C10FEB24746023BB4463F060DD41F785E1A07
S1132C2037545F1E3E787F1A3E546746023FFEB219
S1132C30023BB4463E06F1D556B2F343D917484693
S1132C400A400138821AD1B24BB2002B18DB072696
S1132C5002AA6E44D2189B19591A881A0127531EC6
S1132C60874315708B420BD0002F03D01D70931E29
S1132C708B4205D01D705F1E023B3D708B42F9D123
S1132C805B46013B002B2DD02578002D08D05946FA
S1132C90CA0738D5013425785B46023B002D32D172
S1132CA06E46317A00291DD002AAD3186A46093229
S1132CB0D80713D46F460937217039786A4601342E
S1132CC00A3200290AD10DE0511C1278002A09D0D9
S1132CD022704A1C09780134002903D02170013480
S1132CE09A42F1D10023237005B03CBC904699462A
S1132CF0A246AB46F0BD20780028D1D0013421781B
S1132D00013B0029CCD0013B0134002BF3D1E9E78E
S1132D1010B582B000236C4623710F231340302476
S1132D20092B00D937241B196C46E37013090F22B1
S1132D301A403024092A00D9372412196C46A2708B
S1132D401B090F221A403024092A00D937241219EA
S1132D506C4662701B093022092B00D937229B185C
S1132D606A4613704B1E002B2AD00478002C06D020
S1132D70CC0731D5013004788B1E002C2CD16A4647
S1132D80117800291CD000ACE3180132DC0713D4FD
S1132D9001706946013109786A460130023200291E
S1132DA00AD10DE0511C1278002A09D002704A1C85
S1132DB009780130002903D0017001309A42F1D121
S1132DC00022027002B010BD01780029D7D0013072
S1132DD00278013B002AD2D0013B0130002BF3D111
S1132DE0EEE7C046F8B54E1E331C141C5A1E934120
S1132DF0051C002B01D0002C42D00027002C3CD015
S1132E00002B02D139E000280FD0201C0A21FDF745
S1132E1043FB3031E955201C0A21FDF7F9FA01374B
S1132E20013EFFB2041C002EEDD1780825D0791E96
S1132E3069180A782E78431E01242A701C400E70EB
S1132E4001224B1E012818D9002C07D06A781E785D
S1132E506E701A7002228B1E90420ED9A95C1C78E7
S1132E60AC541970591E0E780132AC5CAE54013268
S1132E70D6B20C70023BB042F0D80020E855F8BD41
S1132E80302303700127F8E730B585B00D1C041C0E
S1132E900B2101A8FFF7A6FF6B1E002B2AD0227876
S1132EA0002A06D0E80731D501342278AB1E002A67
S1132EB02CD16A46117900291CD001ADEB180532DA
S1132EC0D80713D421706946053109786A4601345C
S1132ED0063200290AD10DE0511C1278002A09D0CB
S1132EE022704A1C09780134002903D0217001346E
S1132EF09A42F1D10023237005B030BD2078002818
S1132F00D7D001342078013B0028D2D0013B0134D2
S1132F10002BF3D1EEE7C046F0B50268031C10782D
S1132F20202803D101321478202CFBD000260E80F7
S1132F301478251C303D092D19D8002006250927B1
S1132F4001E0002D0FD0860030184600A01930385B
S1132F5080B2088001321478013D261C303EF6B25E
S1132F60EDB2B742EDD20420002D00D1F0BD1A60BD
S1132F700020FBE7F0B54F464646C0B41F1C03686B
S1132F8083B0019391461A78061C0C1C202A04D1A4
S1132F900133019318782028FAD000212170197880
S1132FA03039CDB2092D17D8092500220420A846AE
S1132FB001E000280ED09500AC46624455006A1822
S1132FC0D2B222700133197801383039CDB2C0B28F
S1132FD0A845EED200280AD100264B4626701B20B5
S1132FE01E703E8003B00CBC90469946F0BD019320
S1132FF0002AF1D01F2AEFD818782D380128EBD8F1
S11330005A1C01925B78202B03D1013211782029BC
S1133010FBD048460023037010783038C5B2092D20
S1133020DAD8092500230421A84601E000290FD09D
S11330309D00AC4663445D002B18DBB24846037028
S11330400132107801393038C5B2C9B2A845EDD281
S11330500029C1D00192002BBED00C2BBCD8117812
S11330602D390129B8D8013201A8391C0192FFF782
S113307053FF0028B0D13B88002BADD0064A9342C1
S1133080AAD8632B03D8FA25E8001C183C80019FBA
S113309000203760A6E7C046B80B0000F0B5026810
S11330A0031C1078202803D101321478202CFBD083
S11330B000260E701478303CE5B2092D17D8002094
S11330C00425092701E0002D0DD0860030184600A4
S11330D03019C0B2087001321478013D303CE6B2B8
S11330E0EDB2B742EFD20420002D00D1F0BD1A603A
S11330F00020FBE7F0B557464E464546E0B482B0A3
S11331000A9F1D1C00230B7013702B703B70036807
S1133110061C01931878BA46202804D10133019380
S113312018782028FAD000240C701C78303CE7B2C0
S1133130092F00D985E00427BC4609270020B94699
S113314002E06746002F10D08700B846404447008D
S113315038196746013FC0B2FCB208700133A44677
S11331601C78303CE7B2B945EBD261461B240029F8
S113317006D1201C02B01CBC90469946A246F0BD64
S113318001931828F5D818781B243A28F1D1591C32
S113319001915B78202B03D101310C78202CFBD0DA
S11331A00020107008783038C7B2092F4BD8042794
S11331B009240023BC46A04602E06746002F0FD036
S11331C09C00E7187C0023186746DBB2013FF8B285
S11331D013700131844608783038C4B2A045ECD26B
S11331E062461B24002AC4D001913C2BC1D8087824
S11331F01B243A28BDD10131019101A8291CFFF7F4
S11332004DFF0028B5D12D783C2DB2D8019B002468
S113321019782C29ADD15C1C01945A781B24303ABE
S1133220D7B2092FA5D898783038C1B209290CD95A
S11332309500A8184400514602330C7033600024F2
S113324097E701939FE70191D1E79700BD186A00C2
S11332508B185646337000248BE7C04630B502689D
S1133260031C1478202C03D101321478202CFBD0B9
S11332701B20302C00D030BD5478782CFBD1002496
S11332800C809478901C251C303DEDB2092D09D991
S1133290251C613D052D5CD92035052D69D91860A3
S11332A00020E8E7D01C0D800278141C303CE4B206
S11332B0092C48D9141C613C052C4ED92034052C0A
S11332C0EDD8373AD4B201302A01A5180D8002781E
S11332D0141C303CE4B2092C37D9141C613C052C75
S11332E03FD92034052CDAD8373AD4B201302A0138
S11332F01419A4B20C800278151C303DEDB2092DCE
S113330025D9151C613D052D2FD92035052DC6D88D
S1133310373AD5B2013022015519ADB20D80027889
S1133320141C303CE4B2092C08D9141C613C052C53
S113333023D92034052CB2D8373AD4B22B0118192A
S11333400880042097E70130BEE70130CFE7013061
S1133350E1E7573CE5B2D01CA5E7573AD4B20130B7
S1133360B2E7573AD4B20130C1E7573AD5B2013087
S1133370D1E7373CE5B2D01C95E7573AD4B2DDE744
S1133380F8B5041C00F0AAFB284A1368002B0AD1E4
S11333902749284880250AC02748AD0121C1036078
S11333A0012345601360002C36D0201C1030072305
S11333B0034237D12149421E8A422DD81D4E33681B
S11333C0351C04E01A68002A04D01D1C131C59681B
S11333D08842F7D8184CA3421ED02C681F681034BA
S11333E02F600A1A202A0DD91F187A6058607D6848
S11333F0321C00E01A1C13685E68B542FAD83B60C0
S1133400011C17600E4B1868451A1D6000F00AFC79
S1133410002C03D0201CF8BD00F004FCFDF7D6F806
S11334200024F7E798430830C4E7C04674F0FF1F50
S113343078F0FF1F7810002080100020FE1F00008D
S113344000F0FF1F10B5002813D0041C103C00F03E
S113345045FB6068074A00E01A1C136859688842F3
S1133460FAD82360044B14601A681018186000F02E
S1133470D9FB10BD7810002000F0FF1F014B186825
S11334807047C04600F0FF1F011C012308315A4257
S1133490002382604160C160016103607047C046DF
S11334A0002303617047C04643685A688B604A60D2
S11334B05A68916059604160086103680133036090
S11334C07047C04610B50C68631C14D0C268031C56
S11334D012680833944204D35B685A6812689442B1
S11334E0FAD25C680861A1604C608B605960036823
S11334F00133036010BD0369F3E7C04600B54368B8
S113350082689A608268536003695968814205D071
S11335100021016118680138186000BD5A60F7E79E
S113352010B58024031F64041C60043B1960043B31
S113353000211960143B40381A6010BD10B50F4CBF
S1133540C023206819040E4A014300202160106042
S11335500020FEF7B5FD0B4B2268C02118600B0656
S113356013432360FEF7D4FD0020006880F308882D
S113357062B600DFC046002010BDC04620ED00E06A
S113358004F0FF1F88100020402080F31188024BB4
S11335901A6801321A60704704F0FF1F00B5054A2B
S11335A01368013B1360002B02D1002080F31188C3
S11335B000BDC04604F0FF1F8020024B42051A6084
S11335C07047C04604ED00E08020064B42051A60B7
S11335D0402080F3118800F08FFA002080F31188D6
S11335E008BDC04604ED00E0084B196808681030B7
S11335F0F0C8A046A946B246BB4680F309882038E5
S1133600F0C871460D2001430847C0463011002020
S1133610EFF309800E4B1A6820381060F0C044465E
S11336204D4656465F46F0C008B572B600F02CFC15
S113363062B60CBC116808681030F0C8A046A946F0
S1133640B246BB4680F309882038F0C81847C04604
S113365030110020F8B55F4656464D464446F0B456
S1133660171C5268041C526808200D1CC1197A608A
S113367089468A425BD0DBB2D6689B465368B24621
S11336807B604B4549D0DE680022336B9046187846
S1133690A52808D1002201331978013292B2A52954
S11336A0F9D093089846321C3432201C291CFFF7A9
S11336B03FF8201C291C1F4AFFF73AF8201C291C3C
S11336C05A46FFF771F8201C291C0922FFF76CF8F1
S11336D0F26A201C291CFFF7D7FB201C291C092295
S11336E0FFF762F8201C291C4246FFF7CDFB201C83
S11336F0291C0922FFF758F8326C201C291CFFF7FB
S1133700C3FB201C291C0C4AFFF712F8564508D0AD
S11337107A6853687B604B45B5D149464B687B60FA
S1133720B1E73CBC90469946A246AB46F8BD526808
S1133730A1E7C046E84D00008449000010B5044CE0
S11337402368012B01D9FFF737FFFCF73DFFF7E7AB
S1133750B4100020F0B55F4656464D464446F0B4DA
S113376083B0171C01930C9A0D9B83468A4690469E
S113377099460E9D002805D0052A07D9402080F3DC
S11337801188FEE7402080F31188FEE74C20FFF704
S1133790F7FD041E00D1B4E0002D00D1A2E02563A2
S11337A0BE00321C281CA52100F0F2FB013F256B52
S11337B0B8002D18201C51460C22343000F027FC90
S11337C03F26231D42460021181CA155E262A26433
S11337D09A46FFF765FE201C07271830FFF760FEA6
S11337E0BD43404606273E1A2461A6616462281C34
S11337F05946019AFFF794FE4B462060002B00D0F7
S11338001C60FFF7C1FE404B404E1968013119603E
S11338103268002A34D03E4F3D68002D04D1306810
S1133820C36A984500D334603A4D3B4AE36A116851
S11338308B4200D91360394A10682064013010604B
S1133840374A1468A34200D913609C00E1188B0026
S1133850E8185146FFF728FEFFF7A0FE3F68012451
S1133860002F05D03568EE6AB04501D9FFF7A4FEF4
S1133870201C03B03CBC90469946A246AB46F0BD22
S113388034601B68234D012B2AD1281CFFF7FCFD53
S1133890281C1430FFF7F8FD281C2830FFF7F4FD2E
S11338A0281C3C30FFF7F0FD281C5030FFF7ECFDDE
S11338B0281C6430FFF7E8FD1A4F381CFFF7E4FDBD
S11338C01949081C8946FFF7DFFD1848FFF7DCFD9E
S11338D01748FFF7D9FD174A174817604F46076086
S11338E00B4FA2E7BE00301CFFF74AFD051C206306
S11338F0002800D055E7201C0124FFF7A3FD6442F3
S1133900B6E701204442B3E78011002030110020C3
S113391094100020B41000208411002050110020C5
S1133920B010002054110020681100203411002030
S11339309C100020901000204C110020F8B54F4638
S11339404646C0B44C20FFF71BFD041E69D09620E8
S1133950C000FFF715FD2063002866D09623DA0027
S1133960A52100F015FB4C4D216B07224D19201C9D
S11339704A49954334300C2200F049FB0027261DA8
S11339803F202754E762301CA764FFF789FD201C01
S11339901830FFF785FD0623A36141490022246105
S11339A06462281CFFF7BCFD2060FFF7EDFD3D4B72
S11339B0B14619683C4E013119603268002A38D08A
S11339C03A4F3D68002D04D13268D06A002800D1F6
S11339D03460374D374AE36A11688B4200D913606B
S11339E0354A1068206401301060344A1468A342D8
S11339F000D913609800C418A10068184946FFF75D
S1133A0053FDFFF7CBFD3B68002B00D0336840200B
S1133A1080F3118801253D60294F00263E60FFF7A1
S1133A208DFD0CBC90469946F8BD201CFFF70AFD9D
S1133A30F7E734601F681E4D012F2AD1281CFFF7B9
S1133A4023FD281C1430FFF71FFD281C2830FFF726
S1133A501BFD281C3C30FFF717FD281C5030FFF7D6
S1133A6013FD281C6430FFF70FFD164F381CFFF7B9
S1133A700BFD154B181C9846FFF706FD1348FFF77E
S1133A8003FD1348FFF700FD1249134A40460F6037
S1133A901060064F9EE7C046AC040000EC4D0000E9
S1133AA03D370000801100203011002094100020C8
S1133AB0B41000208411002050110020B010002008
S1133AC048110020541100206811002034110020F6
S1133AD09C100020901000204C110020024B1A680A
S1133AE001321A607047C0462C110020014B18683F
S1133AF07047C04680110020F0B557464E464546F3
S1133B00E0B43F480368002B56D13E4E3268013280
S1133B1032603168002946D03B4C236835689D42A9
S1133B2036D33A4F38680368002B2ED03D68EA68D4
S1133B30D56831686B688B4245D83548354B80462B
S1133B409A4606E03D68EA68D56831686B688B423E
S1133B5039D8281D8146FFF7D1FCAB6A002B03D06E
S1133B60281C1830FFF7CAFC4146EB6A0A689342E6
S1133B7000D90B609800C318980049465044FFF7D9
S1133B8093FC3D6829680029DCD101277E42266028
S1133B90214C2468002C01D1FCF712FD1CBC90467A
S1133BA09946A246F0BD194B1D682C68002C0DD017
S1133BB0402080F31188FEE7174C26680136266002
S1133BC0FCF7FEFCE5E72360134CE2E7134D1C68A9
S1133BD02F68134A1F602C60116801311160186846
S1133BE00768002F04D1084C01235B42236095E74A
S1133BF01A68054CD168C868436823608EE7C046DC
S1133C002C1100204811002008F0FF1F9010002004
S1133C10B0100020B41000208C1000204C110020A3
S1133C2098100020F0B557464E464546E0B4324C55
S1133C302368002B03D1402080F31188FEE7FFF7AF
S1133C40A3FC2168013921602068002400283BD1AD
S1133C502A4D2A68002A37D00026294B294FB1461D
S1133C60294D2A4E9A46B8463268002A20D0F46874
S1133C70E468201C1830271DFFF740FC381CFFF7B0
S1133C803DFCE36A2868834200D92B609900C81878
S1133C908000391C5044FFF707FC42461168E76A6C
S1133CA0CB6A9F42E0D332680124A146002ADED1C8
S1133CB0174C2568002D14D14C46012C14D0154BFB
S1133CC000241F68012F10D0FFF768FC201C1CBCC7
S1133CD090469946A246F0BDFFF70EFF20680138D2
S1133CE0206021680029F7D10A4B00261E60FFF7E7
S1133CF063FC0124E8E7C0462C1100208011002059
S1133D00B410002030110020B01000203411002025
S1133D108C1000207C110020F0B5474680B4364A50
S1133D20071C15680E1C01351560344AFEF7DEFCCD
S1133D30334C344D24680123A10008198200234028
S1133D40AA1898461368002B50D1002C28D042465C
S1133D50002A09D0013CA200131999006A181068BE
S1133D60002816D1002C1BD0013CA2001319990085
S1133D706A1810680028EDD0381C311C5223013C0D
S1133D80FFF768FCA200131999006A18106800284C
S1133D90E8D0381C311C5223FFF75CFC002CE3D123
S1133DA0194B1D682C68002C19D1184B1968086828
S1133DB000280DD1164A1368002B04D0381C311C7E
S1133DC05323FFF747FCFFF72DFF04BC9046F0BDDB
S1133DD01A68381C311C4223FFF73CFCEAE71A68D6
S1133DE0381C311C4223FFF735FCDEE7381C311C3C
S1133DF05223FFF72FFCA8E72C1100208449000070
S1133E0084110020B4100020901000204C110020D8
S1133E109C10002070B5002802D1FFF7CDFB70BDC7
S1133E201349144E0A68144C01320A603568451966
S1133E3020680430FFF762FB2068336845609D42C8
S1133E400FD30E4E306821680431FFF73BFB0C4B57
S1133E501C68A54200D21D60FFF7E4FE0028DED1F5
S1133E60DBE7084B186821680431FFF72BFBF3E705
S1133E702C11002048110020301100209010002047
S1133E8008F0FF1F4C11002010B51E480368002BDA
S1133E902CD11D4C2268216810680B6B984204D801
S1133EA0206821683431FCF785FB184B18491A68DF
S1133EB006E0186800281DD01A68013A1A601A68CA
S1133EC09000821890000A1810680028F1D01B682E
S1133ED09A00D01882008A185368111C5B68083154
S1133EE053608B420AD0D968216010BD0949012270
S1133EF00A60FAE7402080F31188FEE75B685360AC
S1133F00F1E7C0462C11002030110020B010002031
S1133F10B41000207C110020FEE7000000F050FCEB
S1133F20FCF71CFD09480A4A0021121A00F030F877
S1133F3000F022FC00F0BCFB00F050FC054900201E
S1133F40FCF74AFB00F008F8FEE700BF10F0FF1F83
S1133F50AC1100208811002038B5051C00F022FCAB
S1133F6000F0CAFB084C2368002B02D098470023BA
S1133F702360064C2368002B02D09847002323605B
S1133F80281CFFF7C9FF38BD8C11002090110020B8
S1133F9010B5041C00F03CFB201C10BD00B5C9B2D8
S1133FA002E08B4208D0101C0378421C002BF8D18D
S1133FB04B4259414942084000BD00B503E0002B83
S1133FC007D00130013103780A789342F7D0981A68
S1133FD000E0181C00BD00B5031C1A1C0133591E57
S1133FE009780029F9D1101A00BD30B5002308E082
S1133FF0C45CCD5CAC4201D0601B07E00133002CF3
S113400003D09342F4D1002000E0201C30BD30B531
S1134010031C0EE00C78551E1C7001310133002C7A
S113402006D101E01C700133013A002AFAD102E002
S11340302A1C002AEED130BDF0B589B01D1C0EAB90
S11340401B780C1C04930FAB1F78013C00230190D8
S11340500391079202902370984217D1119A9A42C1
S113406014D1049B002B01D06F2F32D0692F02D0C2
S1134070642F00D0AAE0022D02D1039C023CA3E0ED
S1134080012D00D0A2E0039C023C98E0692F0FD0E0
S113409004D8582F19D0642F21D109E0752F04D0EA
S11340A0782F12D06F2F1AD115E0002500951BE050
S11340B0019A002A13DA80231B069A4212D0524234
S11340C001230192029200930EE000250095102630
S11340D00BE0119D00E000250095082605E0002175
S11340E0009101E0012200920A260023069301E0D8
S11340F006901C1C0298311CFCF7CEF9029805911D
S1134100311CFCF785F905990290092902D80A1C8B
S1134110303205E0059A3732782F01D1059A5732AB
S113412006980299631ED2B21A7001300029DFD1B9
S1134130082E09D10499002906D0302A04D0069803
S1134140A31E30221A700230079A022A10D1009955
S1134150002901D1002D02D0109A013A1092109931
S11341601191102E04D1049A002A01D00239119120
S1134170039A0024D11A119A8918164A914225DC0F
S1134180302202E0013B1A70013011991C1C884254
S1134190F8DB102E0AD1019A002A07D0049B002BC9
S11341A004D0631E1F70023C302323700099002941
S11341B002D0013C2D2308E0012D02D1013C2B2328
S11341C003E0022D02D1013C20232370201C09B0FE
S11341D0F0BDC046FD010000F0B5AD4C0027A5447C
S11341E01C1CAC4B0B916B4420210A901970099252
S11341F00897EBE109982521FFF7D0FE04900028E9
S113420010D10998FFF7E7FE089F021C3F18002809
S113421000D1E4E10B9809990A9DA847002800D031
S1134220DDE1DAE1049D09982D1A079507D02A1CCF
S11342300B9809990A9DA847002800D1CDE104985C
S113424045782B1C252D0AD1002602300123099024
S11342500696321C311CB446371C0593A6E0049A1A
S11342600021012501320F1C05952B2B00D1BDE146
S113427004DC202B08D0232B11D109E02D2B00D1F5
S1134280B2E1302B0BD105E0012F00D0B0E1B3E156
S11342900121B1E1059D002D00D0ABE1ACE12A2B59
S11342A003D0002506950A2612E0251D24680694ED
S11342B0002C03DA6042002306900593501C5378C7
S11342C02C1C0AE0069B73435D1906955378013252
S11342D01D1C303D101C092DF4D96F4A069D9542D2
S11342E006DD002601300990FF25321CB4465DE04E
S11342F02E2B1CD143782A2B04D0421C0A200026E2
S113430084460CE026680434F343DB0F9C46837830
S113431002300EE063465E435378761901321D1C69
S1134320303D101C092DF5D90125AC4601E00026CD
S1134330B446682B00D162E103226C2B00D15FE10B
S11343400022DDB26E2B2FD00ADC632B1BD002DCE3
S1134350582B28D110E0642B0ED0692B23D10BE00D
S1134360732B13D004DC6F2B06D0702B1BD110E001
S1134370752B01D0782B16D16346002B0ED0059BEC
S1134380022B11D10CE06346002B0CD1002A0AD178
S11343900AE0782508260322012105E0012603E02E
S11343A00123059300E0FF25013009900898079B3D
S11343B0C01808906E2D75D010D8632D00D184E0FC
S11343C006D8252D00D186E0582D00D089E022E0C2
S11343D0642D0FD0692D00D083E00BE0732D36D00F
S11343E003D86F2D00D07CE015E0752D13D0782D07
S11343F077D110E0231D07932068032A06D0022AF0
S113440001D100B202E0012A00D140B20091069924
S1134410019502910FE0231D07932068032A06D01B
S1134420022A01D180B202E0012A00D1C0B2069A68
S11344300091019502928DA9059A3B1C0396FFF702
S1134440FBFD041E4DD0154F6F443F1B59E0231D47
S113445024680793002C00D1114C002907D0604632
S11344602778013400284CD0B74249DC49E0624641
S1134470201C002A07D0321C00F00CF9371C00283D
S11344803FD0071B3DE0FFF7A6FD071C39E0C046FF
S1134490C4FDFFFF36020000FD01000033020000EE
S11344A0F44D0000251D07952368022A05D0032A30
S11344B008D0002A00D088E004E068462021085A89
S11344C0188082E0089D1D607FE02268201D0DABEE
S11344D007901A7002E00DAB1D7007941C1C012795
S11344E00FE00498FFF777FD089F041E06D00B9891
S11344F00499221C0A9DA84700286ED03F196EE03B
S1134500371C05983E1C00283FD03023022800D0D9
S113451020233D4A6A44137022782D2A04D02B2A82
S113452002D00497202A0CD10497302B09D10B9880
S1134530211C01220A9B984700284ED0781E013482
S113454004900599022911D1412D01D0612D0DD17D
S1134550049D012D41DD0B98211C02220A9DA847D0
S113456000283AD0049D0234023D04953E1C08E024
S113457025490B98694401220A9DA84700282CD09C
S11345800136069DAE42F3DB049F002F06D00B9844
S1134590211C3A1C0A9DA84700281ED0059D002D09
S11345A010D109E025700B98211C01220A9B984721
S11345B0002812D0013602E0144C20256C440698E1
S11345C08642EFDB089DAD190895079C099D2B7861
S11345D0002B00D00EE6089F01E001277F42381C23
S11345E08F239B009D44F0BD002504E0012703E0D8
S11345F0022701E0022505955378013235E60222AF
S1134600437801309DE6C0463602000037020000C0
S113461030B5C9B2031C1F2A35D9444203232340B1
S1134620041C002B07D0D21A1D1C013D217001343B
S1134630002DFAD1C418002905D00D06080428431A
S11346400B02014319435009231C00280ED0051CFA
S1134650013D196059609960D96019615961996186
S1134660D9612033002DF3D14301E318D006400F64
S113467007D0041C1D1C013C02C5002CFBD180008A
S11346801B1803200240002A03D01970013A013399
S1134690F9E730BD10B5C9B2821804E00478431CB0
S11346A08C4203D0181C9042F8D1002010BD0000A9
S11346B038B50B4C0B4D01E008CC9847AC42FBD10C
S11346C0094C0A4D01E008CC9847AC42FBD1084C98
S11346D0084D01E008CC9847AC42FBD138BDC04638
S11346E0F84D0000F84D0000F84D0000F84D0000B2
S11346F0F84D0000F84D000038B5084C084D01E0B5
S113470008CC9847AC42FBD1064C074D02E0043C70
S113471023689847AC42FAD138BDC046F84D000032
S1134720F84D0000F84D0000F84D000030B5002AA7
S113473020D088421ED003240123214207D12042E5
S113474005D1944203D220C9043A20C010E0194292
S113475009D1184207D1934205D20D88023A058047
S11347600231023004E00D78013A05700131013064
S1134770002AE2D130BD000010B5094C002C0ED047
S113478004E06068A268FFF7D1FF0C3421680029B7
S1134790F7D16368002BF4D1A368002BF1D110BDCD
S11347A0044E000010B5054B1C6803E0A068636864
S11347B098472468002CF9D110BDC046A0110020F0
S11347C0054B181C002805D0854681B00020C04345
S11347D0009001B0F746704700300020F74670475C
S11347E05461736B3100000068656C700000000058
S11347F05368656C6C0000002A2A2A4661696C655E
S11348006420746F2073657420646174650D0A00FC
S11348102A2A2A206572726F72207768696C652073
S113482072656164696E6720636F6D6D616E64218A
S1134830202A2A2A0000000053572064617465204E
S1134840000000002A2A2A4661696C656420746F9E
S11348502067657420535720525443206461746563
S11348600D0A00002A2A2A4661696C656420746F67
S113487020736574205357205254432074696D6526
S11348800D0A00002A2A2A206572726F7220776846
S1134890696C652072656164696E6720636F6D6D14
S11348A0616E643A2000000053572074696D6520DE
S11348B0000000002A2A2A4661696C656420746F2E
S11348C020676574205357205254432074696D65E2
S11348D00D0A0000434D443E20000000535720526F
S11348E0544300004669726D7761726500000000F0
S11348F046726565206865617000000052544F532C
S1134900207469636B7300002D2D2D2D2D2D2D2DFD
S11349102D2D2D2D2D2D2D2D2D2D2D2D2D2D2D2DC3
S11349202D2D2D2D2D2D2D2D2D2D2D2D2D2D2D2DB3
S11349302D2D2D2D2D2D2D2D2D2D2D2D2D2D2D2DA3
S11349402D2D2D2D2D2D00000D0A53595354454D59
S1134950205354415455530D0A0000005441534B05
S1134960204C4953543A0D0A4E616D65090953743C
S113497061747573095072696F09537461636B09CB
S1134980544342230D0A00000D0A2A2A2A206F7577
S113499074206F66206865617021202A2A2A0D0A16
S11349A00000000020487A2C20000000206D730DC8
S11349B00A0000002062797465730D0A000000008B
S11349C044656320323920323031320031343A3296
S11349D0393A3534000000002A2A2A4661696C6598
S11349E06420746F20676574205357205254432009
S11349F064617465212000002A2A2A4661696C6575
S1134A006420746F206765742053572052544320E8
S1134A1074696D6521200000202064617465205B49
S1134A2064642E6D6D2E797979795D002020746926
S1134A306D65205B68683A6D6D3A73735B2C7A5DC3
S1134A405D000000202068656C707C73746174756F
S1134A507300000046535348310000004653534846
S1134A60312068656C70000046726565646F6D2066
S1134A70426F617264205368656C6C0047726F7595
S1134A8070206F6620465353483120636F6D6D610B
S1134A906E64730D0A0000005072696E74206865BC
S1134AA06C70206F722073746174757320696E6604
S1134AB06F726D6174696F6E0D0A00005365742026
S1134AC07468652063757272656E742074696D65AF
S1134AD02E205072696E7473207468652063757239
S1134AE072656E742074696D65206966206E6F202E
S1134AF0617267756D656E740D0A000053657420EC
S1134B007468652063757272656E7420646174657F
S1134B102E205072696E74732074686520637572F8
S1134B2072656E742064617465206966206E6F20FE
S1134B30617267756D656E740D0A0000737461743B
S1134B407573000046535348312073746174757350
S1134B5000000000646174650000000074696D6504
S1134B60000000002A2A2A204661696C6564206FCF
S1134B707220756E6B6E6F776E20636F6D6D616EF4
S1134B80643A20002A2A2A20547970652000000003
S1134B9020746F206765742061206C697374206FC2
S1134BA06620617661696C61626C6520636F6D6D0E
S1134BB0616E64730D0A0000950B0000610B000028
S1134BC0610B0000550B00004C4544422068656CA5
S1134BD0700000004C4544420000000047726F75AD
S1134BE070206F66204C45444220636F6D6D616E8A
S1134BF064730D0A0000000020206F6E7C6F6666EF
S1134C007C6E6567000000005475726E73206974D1
S1134C10206F6E2C206F6666206F7220746F67673A
S1134C206C652069740D0A00202064757479203C39
S1134C3076616C75653E0000536574206475747903
S1134C402076616C75652028756E7369676E65647E
S1134C502C20686578206F7220252076616C75653C
S1134C60290D0A004C454442207374617475730025
S1134C7020206F6E000000007965730D0A000000AB
S1134C806E6F0D0A00000000202070776D00000098
S1134C90307800004C454442206F6E004C4544423D
S1134CA0206F6666000000004C454442206E656734
S1134CB0000000004C4544422064757479200000D3
S1134CC02A2A2A20696E76616C6964206E756D6289
S1134CD0657220666F726D6174212054727920654B
S1134CE02E672E2031302C2030783130206F722006
S1134CF03130250D0A0000004C4544472068656C9E
S1134D00700000004C4544470000000047726F7576
S1134D1070206F66204C45444720636F6D6D616E53
S1134D2064730D0A000000004C454447207374610D
S1134D30747573004C454447206F6E004C454447DE
S1134D40206F6666000000004C454447206E65678E
S1134D50000000004C45444720647574792000002D
S1134D604C4544522068656C700000004C45445228
S1134D700000000047726F7570206F66204C454438
S1134D805220636F6D6D616E64730D0A0000000044
S1134D904C45445220737461747573004C454452FD
S1134DA0206F6E004C454452206F66660000000080
S1134DB04C454452206E6567000000004C45445247
S1134DC020647574792000000100000000000000D8
S1134DD01F1D1F1E1F1E1F1F1E1F1E1F1F1C1F1EE9
S1134DE01F1E1F1F1E1F1E1F0909000049444C459A
S10B4DF00000000000000000B7
S10F4DF800200000AAAAAAAAFFFFFFFFE7
S1134E04F84D000000F0FF1F0C000000000000003B
S10B4E14000000000000000092
S9033F1DA0
